:030000000232C108
:0C32C100787FE4F6D8FD75812302330805
:10371400C204E49005BFF09005CBF0C203C207D207
:1037240009C205C202C210C200D20DC201C20FC238
:10373400029005C71204F3000000009005D774320C
:10374400F0E49005D4F0C208900602F0A3F09005CE
:10375400FFF0A3F09005D8F0A3F09005CF1204F386
:1037640000000000123E499005D5EEF0A3EFF022D0
:1036B200C291D20D300439300F13C20F7D587C02F3
:1036C2007F0C12364C9005DFEEF0A3EFF0300E13B4
:1036D200C20E7F81123C4B9005C6E075F00AA4FF32
:1036E200123C4B300CCEC20C12201412397280C420
:1036F200C2AF300712C207C20D121E829217123CCD
:10370200E7123972123DCFD20D12057D123972D2F3
:02371200AF22E4
:10323100C205C29130094930103EC210D20D300092
:103241002CC2007E017FB87D007B017A04790312D4
:1032510005519005C71204F300000000C208E49074
:103261000602F0A3F09005FFF0A3F0800D120D4BC4
:1032710012057D122C0B8005C20D12057D023972DB
:1032810020093C200439300CF7C20C301027C21041
:10329100120D4BD20D9005DAE0FF9005CEE0B50797
:1032A1000812057D122C0B80119005C71204F30042
:1032B1000000008002C20D12057D12397280C12208
:103C19009005D3E0FF3395E0FEEF64024E700FD2BA
:103C290005C20CC210C209120D4BD20D8005D20D6E
:0D3C3900120D4B12057D122C0B1239722258
:103D8F00438E4053890F758D96758B88C28FD2AB3A
:033D9F00D28E229F
:1038300043BA80759350E4F594F591759202F5B111
:10384000F5B2F595F596538E7F5389F0758A4675D6
:103850008C24C28DD2A9123D8F75F51BD2AF121CDC
:10386000BC12371412306E7F0612000312057D124F
:103870003972C291123D793004051236B280F330AC
:0C388000050512323180EB123C1980E685
:03000B00023C9B19
:083C9B00C0E0C083C082C0D06C
:103CA300900A11E004F0C39428748094804006E4E1
:053CB300F0D20FD20C5D
:093CB800D0D0D082D083D0E032DC
:03001B00023A7C2A
:103A7C00C0E0C0F0C083C082C0D075D000C000C010
:103A8C0001C002C003C004C005C006C0071225DD7A
:103A9C00D007D006D005D004D003D002D001D0007E
:0B3AAC00D0D0D082D083D0F0D0E03228
:1025DD0020B22920132F900A13E004F07006900A00
:1025ED0012E004F0C3900A13E0941E900A12E094D6
:1025FD00004012D213D21B12293E8009E4900A1218
:10260D00F0A3F0C21320B32920142F900A15E00473
:10261D00F07006900A14E004F0C3900A15E0941EC1
:10262D00900A14E094004012D214C21B12293E806D
:10263D0009E4900A14F0A3F0C21420B45820155EDA
:10264D00900A17E004F07006900A16E004F0C390AB
:10265D000A17E0941E900A16E094004041D215B27C
:10266D000430040AD20CD20FC28DD28C8023C28CBE
:10267D00C28D9005C71204F300000000C208E4905B
:10268D000602F0A3F09005FFF0A3F0D20CD210C219
:10269D0000D2058009E4900A16F0A3F0C21520B50A
:1026AD0041201660900A19E004F07006900A18E0B7
:1026BD0004F0900A18E0FEA3E0FFC394E8EE940343
:1026CD004014C212D211D216200439B203D207D24D
:1026DD0005D20CC20022C3EF941EEE94004025D209
:1026ED001222301216C212200411B209300906D27C
:1026FD0010D2008004D20CD210D205E4900A18F04A
:05270D00A3F0C216223A
:093E1000007FB07E50DEFEDFFCF5
:013E19002286
:0D3DC100007F077EDA7D37DDFEDEFCDFFAD5
:013DCE0022D2
:0D3DCF00007F897EF97D91DDFEDEFCDFFACC
:013DDC0022C4
:043E5B007F19DFFEEE
:013E5F002240
:0C000E007F037EBD7D43DDFEDEFCDFFADB
:01001A0022C3
:0D3DDD00007F027E187D7CDDFEDEFCDFFA3B
:013DEA0022B6
:093E1A00007F8C7E3BDEFEDFFC24
:013E2300227C
:083E2E007F467E1ADEFEDFFC78
:013E36002269
:083E37007F1C7E06DEFEDFFCAD
:013E3F002260
:083E40007F0DE4FEDEFEDFFC55
:013E48002257
:0A3E050000007F067EFCDEFEDFFCFD
:013E0F002290
:093E2400007F027EC7DEFEDFFC18
:013E2D002272
:043E60007FA0DFFE62
:013E6400223B
:043E65007F2CDFFED1
:013E69002236
:1035D900EFB40C0050569035E6F828287302360AE5
:1035E90002360C02360E0236100236120236140268
:1035F90036160236180236200236280236300236CE
:1036090030800C800A800880068004800280009047
:103619000A0A740FF08015900A0A740AF0800D9056
:103629000A0A7405F08005E4900A0AF0900A0AE093
:103639004420F5DE75BC8090FEADE4F0A37407F07C
:03364900023E102E
:053CC100900987E0FFFF
:103CC600E4F5BDF5BE53BCF0EF42BC43BC4000007A
:103CD600E5BC30E5FB53BCDFAFBDEFFEADBEEDFF8F
:013CE60022BB
:083E490090FDE7E0FEA3E0FF9D
:013E5100224E
:053D2A00900A09EFF012
:103D2F00E4FF1235D9900A09E0FF123CC6E0FF12FA
:073D3F003CC6E0FF023CC698
:0B364C00900987EFF0A3ECF0A3EDF075
:10365700E4FF1235D97F0F123D2A90098AEEF0A3B5
:10366700EFF0900987E0FF123D2AAD07AC06123E46
:1036770049120524A804A905AA06AB07900988E002
:10368700FEA3E0FFE4FCFD120398C006C007900903
:103697008AE0FEA3E0FBAA06E4F9F8D007D00612F9
:0B36A7000423E47B64FAF9F80204231A
:05388C00900988E0FF37
:10389100EFB40B00504790389EF82828730238BFC8
:1038A1000238C20238C50238C80238CB0238CE020B
:1038B10038D10238D40238D70238DA0238DD0200B2
:1038C1000E023DDD023E1A023E2E023E37023E400E
:0E38D100023E05023E24023E60023E650022D9
:08164D00900987EFF0A3EDF016
:10165500C2023005030218B67E017FB87D007B010A
:101665007A0779CF1205517E007F7E7D007B017A56
:1016750009798B1205517F0F123D2A9005C0EEF0B6
:10168500FAA3EFF0FB9005D5E0FCA3E0FD9005C4BF
:10169500E0FFA3E0900A0FCFF0A3EFF09005CCE0B8
:1016A500FEA3E0FF1239FA9005C2EEF0A3EFF09029
:1016B5000988E0FF1235D9123CC1E0FF123CC6A3F0
:1016C500E0640B703ED291A3F0900989E0C394DCED
:1016D5007480948050283005030218B6123CC190DE
:1016E5000989E075F002A424CFF582E5F03407F509
:1016F50083EEF0A3EFF0900989E004F080CBC2916E
:101705000218B49005D3E07003021871C2919009D4
:101715008A7401F090098AE0D3943E7480948050D5
:101725002B3005030218B6123E5B12388C123CC1F1
:1017350090098AE025E0248BF582E43409F583EEEF
:10174500F0A3EFF090098AE004F080C8D29130054B
:10175500030218B690098AE0D3943E7480948040C1
:10176500127401F0900A07E0FFA3E090098BCFF017
:10177500A3EFF012388C123CC190098AE0FD25E0F8
:10178500248BF582E43409F583EEF0A3EFF0ED2523
:10179500E02489F582E43409F583E0FEA3E0FFED5A
:1017A50025E0248BF582E43409F583E0FCA3E0FD14
:1017B5009005C2E0FAA3E0FBA20A921A12351A506C
:1017C50004C291800990098AE004F0021753E4905D
:1017D5000989F0900989E0C3949E74809480502E05
:1017E5003005030218B6123E5B12388C123CC190CC
:1017F5000989E075F002A4244BF582E5F03408F57B
:1018050083EEF0A3EFF0900989E004F080C5E49041
:101815000989F0900989E0FFC3943E748094804063
:10182500030218B43005030218B690098AE004F0E3
:10183500D3943E7480948040037401F090098AE04B
:1018450025E0248BF582E43409F583E0FCA3E0FD73
:1018550075F002EFA424CFF582E5F03407F583ECAB
:10186500F0A3EDF0900989E004F080A7D291E4900F
:101875000989F0900989E0C394DC74809480502D27
:10188500300502802C123CC1900989E075F002A454
:1018950024CFF582E5F03407F583EEF0A3EFF012DF
:1018A5003E5B12388C900989E004F080C6C291D263
:0718B500027B017A0779CFE5
:0118BC002209
:103AEF009005D3E060189005CEE0FF3395E0FED34C
:103AFF00EF940AEE64809480401B740AF0229005C4
:103B0F00CEE0FF3395E0FED3EF940BEE648094800C
:063B1F004003740BF022CC
:103D0A00301C099005CEE004F0023AEF9005CEE0AF
:103D1A0014F0E03395E0C3648094805002E4F0220A
:10345F00301C46C39005CDE094889005CCE0648085
:10346F009493400EA3E024F4F09005CCE03401F0E7
:10347F00800E9005CDE02464F09005CCE03400F090
:10348F00D39005CDE094309005CCE0648094F54066
:10349F00447475F0A37430F022D39005CDE0948876
:1034AF009005CCE064809493500EA3E0249CF090A0
:1034BF0005CCE034FFF0800E9005CDE0240CF090A9
:1034CF0005CCE034FEF0C39005CCE06480948050CE
:0634DF0004E4F0A3F0225A
:1038DF00301C259005C5E004F070069005C4E00487
:1038EF00F0D39005C5E094EE9005C4E09402402912
:1038FF007402F0A374EEF0229005C5E024FFF0905F
:10390F0005C4E034FFF0C3A3E094329005C4E09403
:0A391F00005006E4F0A37432F02219
:033E7400B2062271
:103B2500301C1A9005D3E004F0E0FF3395E0FED396
:103B3500EF9402EE648094804017E4F0229005D360
:103B4500E014F0E03395E0C3648094805003740280
:023B5500F0225C
:10377400301C2E9005D4E014F09005D7E0FFFD7CBA
:10378400009005D4E0FB3395E0FAEB2DFDEC3AFC18
:10379400C3ED9432EC648094805032C374329FF051
:1037A400229005D4E004F09005D7E0FFFD7C009062
:1037B40005D4E0FB3395E0FAEB2DFDEC3AFCD3EDB8
:0E37C40094A9EC64809480400474A99FF022C4
:103B5700301C1A9005CBE004F0E0FF3395E0FED36C
:103B6700EF9404EE648094804017E4F0229005CB34
:103B7700E014F0E03395E0C364809480500374044C
:023B8700F0222A
:103B8900301C1A9005BFE004F0E0FF3395E0FED346
:103B9900EF9402EE648094804017E4F0229005BF10
:103BA900E014F0E03395E0C364809480500374021C
:023BB900F022F8
:10310800301C4BD39005BEE094E89005BDE0648088
:103118009483500EA3E0249CF09005BDE034FFF0AA
:10312800800E9005BEE0240CF09005BDE034FEF062
:103138009005BBE0FEA3E0FFD39005BEE09FEE64E0
:1031480080F89005BDE0648098504AD20B22C20BEB
:10315800C39005BEE094E89005BDE0648094834088
:103168000EA3E024F4F09005BDE03401F0800E9049
:1031780005BEE02464F09005BDE03400F0D390056E
:10318800BEE094309005BDE0648094F54007747506
:06319800F0A37430F022E8
:10334D00C20B301C419005BEE0249CF09005BDE001
:10335D0034FFF09005BCE0249CF09005BBE034FFF9
:10336D00F0C3A3E094649005BBE064809480505852
:10337D009005BEE02464F09005BDE03400F0E490CB
:10338D0005BBF0A3F0229005BEE02464F09005BDCE
:10339D00E03400F09005BCE02464F09005BBE0340F
:1033AD0000F0D39005BEE094309005BDE0648094AC
:1033BD00F540157475F0A37430F09005BCE0249CB5
:0933CD00F09005BBE034FFF02292
:103BEB00301C159005C6E004F0E0D3941974809452
:103BFB008040187419F080139005C6E014F0E0C3F0
:0E3C0B0094017480948050037401F0D20E2254
:10293E00300121300407A21B921C023B8930030A8E
:10294E00A21B921C12334DD21022A21B921C123BC0
:10295E0057C200223004319005BFE0FF3395E0FEF0
:10296E00EF4E7005123E74801CEF64014E7009A28A
:10297E001B921C1238DF800DEF64024E7007A21BF3
:10298E00921C123BEBD2072230030AA21B921C129E
:10299E003774D210229005CBE0F9FB3395E0FAEBB9
:1029AE004A701EA21B921C123D0AD210D200E49055
:1029BE0005D8F0A3F09005CF1204F30000000080BC
:1029CE0034EB64014A700DA21B921C123108D21016
:1029DE00C2008021E9FF3395E0FEEF64024E7009DC
:1029EE00A21B921C12345F8008EF64034E7006B275
:1029FE000AC210C2009005CBE0FF3395E0FEEF64F3
:102A0E00044E701FA21B921C123B25123AEFD210DD
:102A1E00D200E49005D8F0A3F09005CF1204F30095
:062A2E00000000D20722A7
:102831009005C4E0FEA3E0FFD394EEEE94025009AC
:10284100C3EF9432EE9400500A9005C47402F0A3D1
:102851007458F09005CEE0FF3395E0FED3EF940B72
:10286100EE648094805008C3EE648094805005E447
:102871009005CEF09005BDE0FEA3E0D39430EE6468
:102881008094F55008C3EE648094805007E490056D
:10289100BDF0A3F09005BBE0FEA3E0D39430EE645D
:1028A1008094F55008C3EE648094805007E490054D
:1028B100BBF0A3F09005BBE0FEA3E0FFD39005BE03
:1028C100E09FEE6480F89005BDE06480985007EECB
:1028D100F0A3EFF0D20B9005CCE0FEA3E0D394304F
:1028E100EE648094F55008C3EE64809480500A90A1
:1028F10005CC7407F0A374D0F09005D3E0FF3395B5
:10290100E0FED3EF9402EE648094805008C3EE643D
:102911008094805005E49005D3F09005C6E0FF7ED9
:1029210000D3941974809480500AC3EF9401748089
:0D293100948050069005C6740AF0023AEF3B
:101E82001228319009967401F0A37409F0A37487A3
:101E9200F09005C4E0FF900996E0FBA3E475F00121
:101EA20012034AA9F0FAEF1202BB9005C4A3E0FFA5
:101EB200900996E0FBA3E475F00112034AA9F0FA37
:101EC200EF1202BBA206E433FF900996E0FBA3E403
:101ED20075F00112034AA9F0FAEF1202BB9005CE87
:101EE200E0FF900996E0FBA3E475F00112034AA912
:101EF200F0FAEF1202BBA20BE433FF900996E0FB6B
:101F0200A3E475F00112034AA9F0FAEF1202BB90A2
:101F120005BDE0FF900996E0FBA3E475F001120312
:101F22004AA9F0FAEF1202BB9005BDA3E0FF9009A7
:101F320096E0FBA3E475F00112034AA9F0FAEF124E
:101F420002BB9005BBE0FF900996E0FBA3E475F0AD
:101F52000112034AA9F0FAEF1202BB9005BBA3E0FB
:101F6200FF900996E0FBA3E475F00112034AA9F081
:101F7200FAEF1202BB9005CCE0FF900996E0FBA3BA
:101F8200E475F00112034AA9F0FAEF1202BB9005C0
:101F9200CCA3E0FF900996E0FBA3E475F0011203E5
:101FA2004AA9F0FAEF1202BB9005D3E0FF9009961E
:101FB200E0FBA3E475F00112034AA9F0FAEF120262
:101FC200BBA20AE433FF900996E0FBA3E475F0019B
:101FD20012034AA9F0FAEF1202BBA203E433FF9004
:101FE2000996E0FBA3E475F00112034AA9F0FAEFA7
:101FF2001202BB9005C6E0FF900996E0FBA3E0FA4F
:10200200A3E0F9EF1202BB7B017A0979877D0F0207
:022012003D602F
:101CBC009009967401F0A37409F0A37487F07B016A
:101CCC007A09F990099E740FF0E4FFFE123BBB9069
:101CDC000996E0FBA3E475F00112034AA9F0FA128D
:101CEC000275FF9005C4E4F0A3EFF0E0F8E4F0E82F
:101CFC009005C4F0900996E0FBA3E475F001120383
:101D0C004AA9F0FA120275FF9005C4E0F0A3E04F67
:101D1C00F0900996E0FBA3E475F00112034AA9F0D8
:101D2C00FA12027524FF9206900996E0FBA3E47563
:101D3C00F00112034AA9F0FA1202759005CEF09048
:101D4C000996E0FBA3E475F00112034AA9F0FA121C
:101D5C00027524FF920B900996E0FBA3E475F00149
:101D6C0012034AA9F0FA120275FF9005BDE4F0A324
:101D7C00EFF0E0F8E4F0E89005BDF0900996E0FB98
:101D8C00A3E475F00112034AA9F0FA120275FF9050
:101D9C0005BDE0F0A3E04FF0900996E0FBA3E475DD
:101DAC00F00112034AA9F0FA120275FF9005BBE488
:101DBC00F0A3EFF0E0F8E4F0E89005BBF0900996A2
:101DCC00E0FBA3E475F00112034AA9F0FA120275C4
:101DDC00FF9005BBE0F0A3E04FF0900996E0FBA369
:101DEC00E475F00112034AA9F0FA120275FF90058E
:101DFC00CCE4F0A3EFF0E0F8E4F0E89005CCF09040
:101E0C000996E0FBA3E475F00112034AA9F0FA125B
:101E1C000275FF9005CCE0F0A3E04FF0900996E03E
:101E2C00FBA3E475F00112034AA9F0FA12027590B3
:101E3C0005D3F0900996E0FBA3E475F00112034A78
:101E4C00A9F0FA12027524FF920A900996E0FBA3FE
:101E5C00E475F00112034AA9F0FA12027524FF92FC
:101E6C0003900996E0FBA3E0FAA3E0F91202759047
:061E7C0005C6F00228314A
:1010B2000000000000000000005F000000000700C8
:1010C200070000147F147F1400242A7F2A120323AE
:1010D2001008046200364956205000000007000044
:1010E20000001C22410000000041221C0022147F4B
:1010F20014220008083E08080000004030000008E2
:10110200080808080000004000000020100804023F
:10111200003E5149453E0000427F40000062514975
:101122004946002141494D33001814127F1000270F
:1011320045454539003C4A494931000171090503D9
:1011420000364949493600464949291E0000001423
:101152000000000040340000000814224100001486
:10116200141414140000412214080002015905024B
:10117200003E415D594E007C1211127C007F4949AC
:101182004936003E41414122007F4141413E007FBC
:1011920049494941007F09090901003E4141517114
:1011A200007F0808087F0000417F41000020404086
:1011B200403F007F08142241007F40404040007FB2
:1011C200020C027F007F0408107F003E4141413E35
:1011D200007F09090906003E4151215E007F09197D
:1011E20029460026494949320001017F0101003F99
:1011F2004040403F001F2040201F007F2018207FDA
:101202000063140814630003047804030061514965
:101212004543007F7F414141000204081020004104
:1012220041417F7F00100804081080808080808008
:10123200000001020400002054545478007F44440A
:10124200443800384444444400384444447F00381D
:101252005454545800087E0909020018A4A4A47822
:10126200007F040404780000447D40000040808434
:101272007D00007F101028440000417F4000007C68
:101282000438047C007C0404047800384444443864
:1012920000FC444444380038444444FC007C0804C4
:1012A20004040048545454240000043F4444003CC5
:1012B2004040207C001C2040201C007C4030407CB0
:1012C200004428102844001CA0A0A07C00446454C0
:1012D2004C440406FFFF06042060FFFF6020183C18
:1012E2007EFF0000202024242424BF6424342824E8
:1012F20022202000100804023F4544444242424159
:1013020078000000082848890E8878080800F8004C
:1013120000FF0000402010090619600000000F4085
:10132200807F000080642C342424EC322222322E6E
:1013320023A260000041219189874D552525554DF5
:10134200818080001010FF109000FC0416250444D8
:101352007C00000042827F01001C11111F11115DEF
:1013620081413F0004A4A4A4BFA4A40448C8487FA8
:1013720048C8080040CF544424342F2080432C1006
:041382002C43800078
:083AB700C11EC19D410402067D
:053C4600123C4BE4FFFD
:103C4B00C2A2C281E4FEEEC3940874809480501526
:103C5B00C2A5EF30E704D2A48002C2A4D2A5EF25FF
:073C6B00E0FF0E80E1D281B1
:013C7200222F
:103C7300D2A2C281E4FEEEC39408748094805015EE
:103C8300C2A5EF30E704D2A48002C2A4D2A5EF25D7
:073C9300E0FF0E80E1D28189
:013C9A002207
:053E6A00A217921E22C8
:053E6F00A218921D22C3
:06000300900402EFF02260
:093E5200900400EFF0A3EDF02252
:0F3DB2007E047F007D007B017A007900020551BD
:0723300090099DEEF0C218B8
:10233700900999EBF0A3EAF0A3E9F0301D1D90098D
:1023470099E0FBA3E0FAA3E0F9301E08120275FF3B
:10235700EDF4805D1202754D0224A2201E030224B3
:102367000D301851900999E0FBA3E0FAA3E0F912A8
:102377000275FF90099DE0FEC374089EFEF874FF86
:10238700088002C333D8FCFEEDF44E5F1202BB9007
:102397000999E0FBA3E0FAA3E0F9120275FF90099F
:1023A7009DE0FEF874FF088002C313D8FCFEEDF42D
:1023B7005E4F0224A2900999E0FBA3E0FAA3E0F99B
:1023C700120275FF90099DE0FEC374089EFEF87423
:1023D700FF088002C313D8FCFEEDF44E5F1202BB68
:1023E700900999E0FBA3E0FAA3E0F9120275FF90C8
:1023F700099DE0FEF874FF088002C333D8FCFEEDA8
:10240700F45E4F0224A230184A900999E0FBA3E03A
:10241700FAA3E0F9120275FF90099DE0FEC3740864
:102427009EFEF874FF088002C333D8FC4D5F12028A
:10243700BB900999E0FBA3E0FAA3E0F9120275FF4C
:1024470090099DE0FEF874FF088002C313D8FC5D75
:102457004F8048900999E0FBA3E0FAA3E0F9120244
:1024670075FF90099DE0FEC374089EFEF874FF088F
:102477008002C313D8FC4D5F1202BB900999E0FBA1
:10248700A3E0FAA3E0F9120275FF90099DE0FEF8B8
:0F24970074FF088002C333D8FC5D4F1202BB22D2
:0B24A600900990EDF090098FEFF0FA24
:1024B100A3E0FE5407900996F0EB24E0900991F017
:1024C100EE131313541F75F080A4FFEA7C002FFF55
:1024D100EC35F0FE74002FF974003EFA9009937404
:1024E10001F0A3EAF0A3E9F0900402E0FFECC39F3E
:1024F1005047900991E075F006A424B2F582E5F009
:102501003410F583E5822CF582E43583F583E49379
:10251100FF900996E0FEF8EF088002C333D8FCFF74
:10252100900992F0FDA3E0FBA3E475F00112034AC8
:10253100A9F0FA1223300C80AF900996E0700302E3
:1025410025DC900990E0FFC39438748094804003A7
:102551000225DCEF131313541F75F080A4FF9009BB
:102561008FE07C002FFFEC35F0FE74802FF97400B2
:102571003EFA9009937401F0A3EAF0A3E9F0900404
:1025810002E0FFECC39F5053900991E075F006A45F
:1025910024B2F582E5F03410F583E5822CF582E46E
:1025A1003583F583E493FF900996E0FEC374089E9A
:1025B100FEF8EF088002C313D8FCFF900992F0FDEA
:1025C100A3E0FBA3E475F00112034AA9F0FA900914
:0B25D1009DEEF0D2181223370C80A3FF
:0125DC0022DC
:1033D60090098BEBF0A3EAF0A3E9F090098BE0FBF0
:1033E600A3E0FAA3E0F9120275606D900402E0FF13
:1033F600C374809FFFE49400FE900400E0FD3395C3
:10340600E0FCD3ED9FEE6480F8EC6480984007E41E
:10341600F0A3E02408F0900401E0FF3395E0FED32A
:10342600EF9438EE648094804002E4F0900400E06B
:10343600FFA3E0FD90098BE0FBA3E475F001120306
:103446004AA9F0FA120275FB1224A6900402E0FFC4
:09345600900400E02FF0808322B5
:0839290090098FEFF0A3EDF00F
:10393100A31204F300000001900990E0FF14F0EFDE
:103941006020A3E0F8A3E0F9A3E0FAA3E0FB90096B
:103951008FE0FFE4FCFDFE1203989009911204E749
:1039610080D6900991E0FCA3E0FDA3E0FEA3E0FF77
:013971002233
:062B22009009871204E790
:102B2800E490098EF090098DF090098CF090098B53
:102B3800E0F9A3E0FFC3994003022BFFC3E99F1408
:102B4800FD7F0A123929A804A905AA06AB0790092E
:102B580087E0FCA3E0FDA3E0FEA3E0FF120423E46A
:102B68007B0AFAF9F8120423AF03AE0790098EE046
:102B7800701B90098BE014FFA3E0C39F500FEE7009
:102B880006A3E004F0806790098E7401F0900402B7
:102B9800E0FFFDC374809DFDE49400FC900400E018
:102BA800FB3395E0FAD3EB9DEC6480F8EA648098F7
:102BB8004007E4F0A3E02408F0900401E0FD339519
:102BC800E0FCD3ED9438EC648094804002E4F0900B
:102BD800098DE0FD90098CE0C39D8FF0A4FF90045F
:102BE80000E02FFFA3E0FDEE2430FB1224A690099D
:102BF8008CE004F0022B3590098BE0FF900400E094
:022C08002FF0AB
:012C0A0022A7
:10356400900400E0FD3395E0FCD3ED9470EC6480AE
:1035740094804007E4F0A3E02410F0900401E0FDFF
:103584003395E0FCD3ED9430EC648094804002E405
:10359400F0EF75F020A424E6F9741235F0FA9009DE
:1035A4008B74FFF0A3EAF0A3E9F0900400E0FFC0FD
:1035B40007A3E0FDEF240FFBED240F90098AF090A0
:1035C400098EE4F0A37420F0D007121ACB90040003
:0535D400E02410F022CC
:072FD200900992EDF0AC073D
:102FD900900400E0FF3395E0FED3EF947FEE648028
:102FE90094804006E4F0A3E004F0900401E0FF338C
:102FF90095E0FED3EF943FEE648094804002E4F0C4
:10300900900992E0131313541F75F080A4AD047C4A
:10301900002DFFEC35F0FE74002FF974003EFAA381
:103029007401F0A3EAF0A3E9F0900992E05407FFD4
:10303900F87401088002C333D8FCFF900993E0FBC0
:10304900A3E475F001301E0F12034AA9F0FA120227
:1030590075FEEFF45E800A12034AA9F0FA120275AE
:043069004F1202BB45
:01306D002240
:0D21A500900989EDF0A3EBF0900988EFF0B0
:1021B200C217D3947F748094804003747FF0900997
:1021C20089E0D3943F748094804003743FF0900977
:1021D2008AE0D3947F748094804003747FF09009E6
:1021E2008BE0D3943F748094804003743FF0900955
:1021F20088E0FF90098AE0C39FFFE49400FE123D4D
:10220200F990098CEFF0900989E0FF90098BE0C307
:102212009FFFE49400FE123DF990098DEFF09009C2
:0F2222008CE0FED36480F8EF6480984038D217C8
:10223100900991EEF090098DE090098CF0A3EEF0F9
:10224100900988E0FF900991F0900989E090098850
:04225100F0A3EFF017
:10225500A3E0FF900991F090098BE090098AF0A323
:02226500EFF098
:0E22670090098AE0FF900988E0FED39F402591
:0F227500900991EEF0900988EFF090098AEEF051
:10228400900989E0FF900991F090098BE090098909
:06229400F090098BEFF051
:10229A0090098CE0A2E713FE3395E090098FF0A332
:1022AA00CEF090098BE0FF900989E0C39F90098ED8
:1022BA0050057401F0800374FFF090098AE0FE90E3
:1022CA000988E0FFD39E505D201703A38008900978
:1022DA0089E0FF900988E0FD122FD290098DE0FF76
:1022EA003395E0FEC3900990E09FFF90098FE09E2E
:1022FA00FEF0A3EFF0C3EE64809480502090098E24
:10230A00E0FF900989E02FF090098CE0FF3395E017
:10231A00FE900990E02FF090098FE03EF090098836
:05232A00E004F08095C5
:01232F00228B
:0D2DCA0090098CEDF0A3EBF090098BEFF079
:102DD700D3947F748094804003747FF090098DE0D2
:102DE700FF90098CE0FD2FFFE433FED3EF9440EE14
:102DF70064809480400574409DA3F090098DE0FFA6
:102E070014F0EF607190098CE0131313541F75F0E1
:102E170080A4FF90098BE07C002FFFEC35F0FE7457
:102E2700002FF974003EFA90098E7401F0A3EAF0BE
:102E3700A3E9F090098CE05407FFF87401088002B9
:102E4700C333D8FCFF90098EE0FBA3E475F0013093
:102E57001E0F12034AA9F0FA120275FEEFF45E8004
:102E67000A12034AA9F0FA1202754F1202BB90091F
:062E77008CE004F08085F0
:012E7D002232
:0A2E7E0090098BEDF0AC07A3EBF018
:102E8800FFEC2FFFE433FED3EF9480EE6480948050
:102E9800400474809CF090098BE0D3943F74809434
:102EA800804003743FF090098BE0131313541F758F
:102EB800F080A4AD047C002DFFEC35F0FE74002FEB
:102EC800F974003EFA90098D7401F0A3EAF0A3E9C1
:102ED800F090098BE05407FFF87401088002C333AF
:102EE800D8FCFF90098CE0FE14F0EE6033301E171A
:102EF800A3E0FBA3E475F00112034AA9F0FA120259
:102F080075FEEFF45E801490098DE0FBA3E475F084
:102F18000112034AA9F0FA1202754F1202BB80C3CC
:012F28002286
:0A1ACB00900987EFF0900989EBF015
:0C1AD500E4900990F0A3F0EFD39B4016C2
:101AE100900987E0FF900998F0900989E0900987B3
:061AF100F0900989EFF0FE
:0A1AF70090098AE0FFEDD39F400B39
:0B1B0100900998EDF0AD0790098AF004
:101B0C00900987E0D3947F748094804003747FF0B5
:101B1C00EDD3943F7480948040027D3F900989E01E
:101B2C00D3947F748094804003747FF090098AE092
:101B3C00D3943F748094804003743FF0900993EDEC
:101B4C00F090098AE0FF900993E0FED39F400302D6
:101B5C001CBBEE5407900997F0900987E09009920E
:101B6C00F0900989E0FF900992E0FDD39F400302B9
:101B7C001CB190098FE024FFFF90098EE034FFFE2A
:101B8C00D3900991E09F900990E09E4003021CB114
:101B9C00900993E0131313541F75F080A47C002D4F
:101BAC00FFEC35F0FE74002FF974003EFAA37401BB
:101BBC00F0A3EAF0A3E9F090098BE0FBA3E0FAA311
:101BCC00E0F9900990E475F00112034A85F082F572
:101BDC008312028EFF900997E0FEF8EF088002C393
:101BEC0033D8FCFC900994E0FBA3E475F0011203DC
:101BFC004AA9F0FAAD04122330900997E070030261
:101C0C001CA8900993E0FFC394387480948040031F
:101C1C00021CA8900991E024FFF0900990E034FF99
:101C2C00F0EF131313541F75F080A4FF900992E08A
:101C3C007C002FFFEC35F0FE74802FF974003EFA17
:101C4C009009947401F0A3EAF0A3E9F090098BE0F9
:101C5C00FBA3E0FAA3E0F9900990E475F0011203FC
:101C6C004A85F082F58312028EFF900997E0FEC33D
:101C7C0074089EFEF8EF088002C313D8FCFC900990
:101C8C0094E0FBA3E475F00112034AA9F0FAAF0447
:101C9C00AD0790099DEEF0D218122337900992E00F
:0F1CAC0004F0021B6D900993E02408F0021B4D19
:011CBB002206
:103972009009877401F0A37400F0A37400F0E4FDD1
:10398200EDC39408748094805029E4FCECC39480C5
:1039920074809480501A900987E0FBA3E475F001CB
:1039A20012034AA9F0FA120275FF123C730C80DC72
:0339B2000D80CDB8
:0139B50022EF
:10306E00D2A3123DC1C2A3123DC1D2A37FAE123C68
:10307E004B7F20123C467F21123C467F7F123C4BF9
:10308E007F22123C467F07123C4B7F40123C4B7F07
:10309E0081123C4B9005C6E075F00AA4FF123C4B22
:1030AE007FA1123C4B7FC8123C4B7FA6123C4B7F3C
:1030BE00A8123C4B7F3F123C4B7FD3123C467FD530
:1030CE00123C4B7F20123C4B7FD9123C4B7FF212AD
:1030DE003C4B7FDA123C4B7F12123C4B7FDB123C97
:1030EE004B7F30123C4B7F8D123C4B7F14123C4B6E
:0A30FE007FA4123C4B7FAF023C4B55
:0E3DEB00E4F5C7F5C5F5C675C3FF75C4FF2224
:073D4600ECF5C3AF058FC4CB
:103D4D00A2AF92D5C2AF75C65A75C6A50000A2D551
:033D5D0092AF2200
:103DA200AD07AC0675C78075C503123D46023DEBF3
:103BBB00AD07AC0690099EE0602575C78075C50101
:103BCB00123D46E5C21202BB0DBD00010C7401296A
:103BDB00F9E43AFA90099EE014F070E4123DEB22FE
:0F2CF40090099CEBF0A3EAF0A3E9F0AD07AC0662
:102D0300A3E0FE7002FF2275C7809009A0EEF0A336
:102D1300ECF0A3EDF090099CE0F9A3E0FAA3E090B6
:102D230009A3C9F0A3EAF0A3E9F075C502ECF5C362
:102D3300AF058FC490099CE0FBA3E0FAA3E0F9126E
:102D43000275F5C2123D4D0DBD00010C90099DE4C5
:102D530075F00112033490099FE014F070CF9009CD
:102D6300A1E0FCA3E0FD9009A0E090099FF0900989
:102D7300A3E0F9A3E0FAA3E090099CC9F0A3EAF069
:102D8300A3E9F09009A07401F0F5C5123D4690093E
:102D93009CE0FBA3E0FAA3E0F912027565C26007A9
:102DA300E49009A0F080170DBD00010C90099DE48B
:102DB30075F00112033490099FE014F070CD123DB9
:062DC300EB9009A0E0FF07
:012DC90022E7
:103D6000900999EDF0E4FFFE123DA2E090099FF06A
:093D7000E4FF122CF4EF24FF2201
:102712002D00560020202020202000487A004175FC
:10272200746F002020202000540041004E0053000E
:102732004661696C0052756E200053746F70002000
:10274200202020200056302E33004279204372652B
:102752006174697665204C617500504D6F64653D0A
:10276200004C53423D00202020004252543D00566E
:102772006261743D005361766520537563632E0078
:1027820053617665204661696C2100FFFF0303EF08
:102792001FEF0303FFFFFFFFFFFB0303FBFFFFFF2F
:1027A200FFFFFF0303CF9F3F0303FFFFFFFFFFFB7B
:1027B2000303FBFFFFFFFFFFFFFFFFFFFFFF03031B
:1027C200FBF3070FFFFFFFFFFFE7C39B3B73F7FF1F
:1027D200FFFFFFFF0703FBFB0307FFFFFF1F1F189E
:1027E200181F1F1F18181F1F1F1F1F1B18181B1F22
:1027F2001F1F1F1F1F18181F1F1F18181F1F1F1F03
:102802001F1B18181B1F1F1F1F1F1F1F1F1F1F1FEC
:1028120018181B191C1E1F1F1F1F1F1D191B1B18F9
:0F2822001C1F1F1F1F1F1C181B1B181C1F1F1FF5
:103D79009005CEE0FD7F0E12164D9007CCEBF0A317
:063D8900EAF0A3E9F022BC
:102A3400200B03022B21900602E0FAA3E0FB7C00AA
:102A44007D64FFAE021202DF7C007D0A1202DFC346
:102A5400ED9405EC9400401CEB24F4FFEA3401FEF1
:102A64007C037DE81202DF7C037DE81202CD900531
:102A7400BDEE8020900602E0FEA3E0FF7C037DE82B
:102A84001202DF7C037DE81202CDEF24F4FFEE3462
:102A9400019005BDF0A3EFF09005FFE0FAA3E0FB81
:102AA4007C007D64FFAE021202DF7C007D0A12020C
:102AB400DFC3ED9405EC9400401E7C037DE8AF0376
:102AC400AE021202DF7C037DE81202CDEF24F4FF94
:102AD400EE34019005BB801A9005FFE0FEA3E0FFF1
:102AE4007C037DE81202DF7C037DE81202CD9005B1
:102AF400BBEEF0A3EFF0D39005BEE094309005BD9B
:102B0400E0648094F540077475F0A37430F0C390CA
:0E2B140005BBE0648094805004E4F0A3F0223E
:08138600900991EEF0A3EFF0D5
:10138E0090099574FFF0A3F0D21920170302141BD5
:10139E009005D4E0FF3395E0FE9005D7E02FFFE4F3
:1013AE003E900993F0A3EFF0900993E0FEA3E0FFC7
:1013BE00C394DAEE6480948040030214ADEF25E00E
:1013CE00FDEE33FC74032DF58274043CF583E0FED0
:1013DE00A3E0FF74052DF58274043CF583E0FCA3B5
:1013EE00E0FD900991E0FAA3E0FBD21A12351A50F3
:1013FE00030214791234E5500302148D900994E01F
:10140E0004F07006900993E004F00213B69005D430
:10141E00E0FF3395E0FE9005D7E02FFFE43E900904
:10142E0093F0A3EFF0900993E0FEA3E0FFD39400B6
:10143E00EE648094804068EF25E0FDEE33FC74038B
:10144E002DF58274043CF583E0FEA3E0FF74052DB8
:10145E00F58274043CF583E0FCA3E0FD900991E075
:10146E00FAA3E0FBD21A12351A500F900993A3E09B
:10147E00900997F0D218C21980251234E5500F90BA
:10148E000993A3E0900997F0C218C2198011900930
:10149E0094E024FFF0900993E034FFF0021433300F
:1014AE001903021625900997E0FF900993E4F0A323
:1014BE00EFF0900993E0FEA3E0FFC3EE648094800A
:1014CE00500302156A30183BEF25E0FFEE33FE7431
:1014DE00032FF58274043EF583E0FCA3E0FD900932
:1014EE0091E0FAA3E0FBC3ED9BEC9A405E74052FEE
:1014FE00F58274043EF583E0FEA3E0D39BEE9A5092
:10150E004A803F900994E025E0FF900993E033FE76
:10151E0074032FF58274043EF583E0FCA3E0FD9086
:10152E000991E0FAA3E0FBD3ED9BEC9A501D7405F4
:10153E002FF58274043EF583E0FEA3E0C39BEE9A82
:10154E004009900993A3E0A3F08011900994E02440
:10155E00FFF0900993E034FFF00214C0900997E079
:10156E00FF900993E4F0A3EFF0900993E0FEA3E05F
:10157E00FFC394DBEE64809480400302162530187E
:10158E003BEF25E0FFEE33FE74032FF58274043E2D
:10159E00F583E0FCA3E0FD900991E0FAA3E0FBC324
:1015AE00ED9BEC9A406074052FF58274043EF58332
:1015BE00E0FEA3E0D39BEE9A504C803F900994E05E
:1015CE0025E0FF900993E033FE74032FF582740437
:1015DE003EF583E0FCA3E0FD900991E0FAA3E0FB69
:1015EE00D3ED9BEC9A501F74052FF58274043EF5D3
:1015FE0083E0FEA3E0C39BEE9A400B900993A3E019
:10160E00900996F08011900994E004F0700690090C
:10161E0093E004F0021577900995E0FFF4600AA3B9
:10162E00E0FEF46004EFB50607E4900601F0C32275
:0E163E00900995E0FFA3E0C39F900601F0D352
:01164C00227B
:1018BD0020090302197E9005D3E0FF3395E0FEEF7A
:1018CD004E600302198F9005CEE0FFFD3395E0FCCD
:1018DD00D3ED9402EC64809480500302198FEF24B1
:1018ED00FC601104701D900991E4F0A37402F0A343
:1018FD0014F0801C900991E4F0A37404F0A3740219
:10190D00F0800D900991E4F0A37408F0A37403F036
:10191D009005CFE0F8A3E0F9A3E0FAA3E0FB900671
:10192D0001E0FFE4FCFDFEEB2FFFEE3AFEED39FD8D
:10193D00EC38FC9005CF1204E79005D8E475F00162
:10194D00120334FED3900992E095F0900991E09E38
:10195D004003021ACA9005CFE0FCA3E0FDA3E0FE10
:10196D00A3E0FF900993E0F9F81204D4900601EF7B
:10197D00F0E49005D8F0A3F09005CF1204F3000029
:10198D0000009005CEE0B40C004003021ACA901975
:10199D00A2F82828730219C60219F0021A02021AB7
:1019AD0014021A28021A3C021A4F021A62021A7500
:1019BD00021A88021A9C021AB1900601E0FCE41288
:1019CD0001C0A804A905AA06AB07E4FFFE7D487C6B
:1019DD0042120119E4FBFAF9783F1200251201F4C5
:1019ED00021AC4900601E0FF747D8FF084FFE4FCC1
:1019FD00FDFE021AC4900601E0FF74FA8FF084FF19
:101A0D00E4FCFDFE021AC4900601E0FD7C007E019F
:101A1D007FF41202DFE4FCFD021AC4900601E0FD22
:101A2D007C007E047FE21202DFE4FCFD021AC4900A
:101A3D000601E0FD7C007E097FC41202DFE4FCFD9F
:101A4D008075900601E0FD7C007E137F881202DF19
:101A5D00E4FCFD8062900601E0FD7C007E307FD4C9
:101A6D001202DFE4FCFD804F900601E0FD7C007E5C
:101A7D00617FA81202DFE4FCFD803C900601E0FBD3
:101A8D00E4FAF9F87F507EC3FDFC1239B680289038
:101A9D000601E0FBE4FAF9F87F487EE87D01FC12CF
:101AAD0039B68013900601E0FBE4FAF9F87F907ED9
:0D1ABD00D07D03FC1239B69005C71204E776
:011ACA0022F9
:0439FA008D828C83AB
:1039FE00AC02AD03120524E47B64FAF9F8120398C5
:103A0E00C006C007AE83AF82AB07AA06E4F9F8D0B2
:103A1E0007D006120423C006C007900A0FE0FEA3CB
:0E3A2E00E0FBAA06E4F9F8D007D00602042354
:083A3C00900995EAF0A3EBF0FC
:103A4400120524A804A905AA06AB07A3E0FEA3E077
:103A5400FFE4FCFD120398C006C007900995E0FE40
:103A6400A3E0FBAA06E4F9F8D007D006120423E485
:083A74007B64FAF9F802042357
:05319E00E0FEA3E0FFCC
:0431A300AB07AA06C6
:1031A700C3EB9410EA942750337C037DE81202DFC7
:1031B700EF2430900604F0A3742EF07C007D64AFFA
:1031C70003AE021202DF7C007D0A1202DFED24301B
:1031D700A3F07C007D0AAF03AE0280357C277D100B
:1031E700AF03AE021202DFEF2430900604F07C0337
:1031F7007DE8AF03AE021202DF7C007D0A1202DF18
:10320700ED2430A3F0A3742EF0AE02AF037C007D53
:10321700641202DF7C007D0A1202DFED2430A3F086
:09322700E4A3F07B017A067904AE
:01323000227B
:10099200E4FFFEFDFC9005C7E0F8A3E0F9A3E0FA4E
:1009A200A3E0FBC31204C3700E900609742AF0A3DD
:1009B200F0A3F0A3020D407F807E967D987C00908C
:1009C20005C7E0F8A3E0F9A3E0FAA3E0FBC3120431
:1009D200C3404F7B807A96799878009005C7E0FCF7
:1009E200A3E0FDA3E0FEA3E0FF120423EF24309076
:1009F2000609F07B407A42790F78009005C7E0FC47
:100A0200A3E0FDA3E0FEA3E0FF120423E47B0AFAC5
:100A1200F9F8120423EB243090060BF0A3744D0274
:100A22000D407F407E427D0F7C009005C7E0F8A319
:100A3200E0F9A3E0FAA3E0FBC31204C340537B40F6
:100A42007A42790F78009005C7E0FCA3E0FDA3E0AD
:100A5200FEA3E0FF120423EF2430900609F0A374F2
:100A62002EF07BA07A86790178009005C7E0FCA37E
:100A7200E0FDA3E0FEA3E0FF120423E47B0AFAF9FF
:100A8200F8120423EB243090060BF0A3744D020DF0
:100A9200407FA07E867D017C009005C7E0F8A3E040
:100AA200F9A3E0FAA3E0FBC31204C340767BA07A69
:100AB20086790178009005C7E0FCA3E0FDA3E0FE83
:100AC200A3E0FF120423EF2430900609F0E47B1028
:100AD2007A27F9F89005C7E0FCA3E0FDA3E0FEA3A6
:100AE200E0FF120423E47B0AFAF9F8120423EB2450
:100AF2003090060AF0E47BE87A03F9F89005C7E043
:100B0200FCA3E0FDA3E0FEA3E0FF120423E47B0AC2
:100B1200FAF9F8120423EB243090060BF0A3746B5D
:100B2200020D40E47F107E27FDFC9005C7E0F8A38C
:100B3200E0F9A3E0FAA3E0FBC31204C3404DE47B57
:100B4200107A27F9F89005C7E0FCA3E0FDA3E0FEC8
:100B5200A3E0FF120423EF2430900609F0E47BE8BF
:100B62007A03F9F89005C7E0FCA3E0FDA3E0FEA339
:100B7200E0FF120423E47B0AFAF9F8120423EB24BF
:100B82003090060AF0A3746B020D40E47FE87E0306
:100B9200FDFC9005C7E0F8A3E0F9A3E0FAA3E0FBAF
:100BA200C31204C35003020C33E47BE87A03F9F85E
:100BB2009005C7E0FCA3E0FDA3E0FEA3E0FF120462
:100BC20023EF2430900609F0A3742EF0E47B0AFA96
:100BD200F9F89005C7E0FCA3E0FDA3E0FEA3E0FF67
:100BE200120423E47B0AFAF9F8120423AC00AD01E3
:100BF200AE02AF03E47B05FAF9F8C31204C3E47B47
:100C02006450028002FAF9F89005C7E0FCA3E0FD07
:100C1200A3E0FEA3E0FF120423E47B0AFAF9F81230
:100C22000423EB243090060BF090060C746B020D3B
:100C320040E47F64FEFDFC9005C7E0F8A3E0F9A361
:100C4200E0FAA3E0FBC31204C34065E47B64FAF953
:100C5200F89005C7E0FCA3E0FDA3E0FEA3E0FF12CD
:100C62000423EF2430900609F0E47B0AFAF9F890A5
:100C720005C7E0FCA3E0FDA3E0FEA3E0FF1204230E
:100C8200E47B0AFAF9F8120423EB243090060AF006
:100C9200E47B0AFAF9F89005C7E0FCA3E0FDA3E0C3
:100CA200FEA3E0FF120423EB243090060B020D405A
:100CB200E47F0AFEFDFC9005C7E0F8A3E0F9A3E09B
:100CC200FAA3E0FBC31204C3403DE47B0AFAF9F83D
:100CD2009005C7E0FCA3E0FDA3E0FEA3E0FF120441
:100CE20023EF2430900609F0E47B0AFAF9F8900524
:100CF200C7E0FCA3E0FDA3E0FEA3E0FF120423EBA8
:100D0200243090060A8037E47F01FEFDFC9005C77F
:100D1200E0F8A3E0F9A3E0FAA3E0FBC31204C340A6
:100D220021E47B0AFAF9F89005C7E0FCA3E0FDA3F1
:100D3200E0FEA3E0FF120423EB2430900609F0E466
:080D4200A3F07B017A06790998
:010D4A002286
:102F2900900991EEF0A3EFF0A3ECF0A3EDF0A3EA82
:102F3900F0A3EBF0900993E0FEA3E0FF900991E084
:102F4900FCA3E0FDD39FEC9E4002800F900995E021
:102F5900FEA3E0FFC3ED9FEC9E5008900991EEF0AF
:102F6900A3EFF0900991E0FEA3E0FFC3900994E07C
:102F79009FFF900993E09EFE900999E0FCA3E0FD74
:102F8900C3900998E09DFD900997E09CFC120524E7
:102F9900C006C007900995E0FEA3E0FFC39009941D
:102FA900E09FFF900993E09EAB07FAE4F9F8D00798
:102FB900D00612042390099AE02FFF900999E03E68
:092FC900FE900991F0A3EFF02243
:1034E500900994E025E0FD900993E033FC74032DE9
:1034F500F58274043CF583E0FEA3E0FF74052DF529
:103505008274043CF583E0FCA3E0FD900991E0FAA8
:05351500A3E0FBC21A57
:10351A00900A09EEF0A3EFF0A3ECF0A3EDF0301A55
:10352A001CD3900A0AE09B900A09E09A502AC39099
:10353A000A0CE09B900A0BE09A401DD322C3900A22
:10354A000AE09B900A09E09A400ED3900A0CE09B8D
:0A355A00900A0BE09A500122C322F0
:100D4B00E4900989F0A3F0A3740FF0A374FFF0E40F
:100D5B00A3F0A3F0A3F0A3F0200203020E3F900533
:100D6B00CEE09005DAF0E4900987F0A3F0900987C4
:100D7B00E0FEA3E0FFC394DCEE64809480503AEF76
:100D8B0025E0FFEE33FE9007CCE0FBA3E0FAA3E0F7
:100D9B00F98F828E83120360FD74032FF582740426
:100DAB003EF583E5F0F0A3EDF0900988E004F070D8
:100DBB00BC900987E004F080B49005D7746EF0D234
:100DCB0008900987E4F0A37432F0900987E0FEA342
:100DDB00E0FFC394AAEE648094805053EF25E0FDAE
:100DEB00EE33FC74032DF58274043CF583E0FEA313
:100DFB00E0FF74052DF58274043CF583E0FCA3E061
:100E0B00FD9005C2E0FAA3E0FBA20A921A12351A72
:100E1B00500D900987A3E09005D7F0C20880109081
:100E2B000988E004F070A3900987E004F0809BE44C
:100E3B009005D4F0E4900987F0A3F09005D4E0FF7F
:100E4B003395E0FEEF25E0FFEE33FE9005D7E0751E
:100E5B00F002A4249FF582E5F03403F583E5822F9D
:100E6B00F582E5833EF583C083C082900988E02537
:100E7B00E0FF900987E033FED082D083E5822FF527
:100E8B0082E5833EF583E0FEA3E0FFC390098AE091
:100E9B009F900989E09E5002800DD390098CE09FB2
:100EAB0090098BE09E4005EEF0A3EFF0900988E0EF
:100EBB0004F07006900987E004F0900987E0700455
:100ECB00A3E064656003020E469005D5E0FCA3E049
:100EDB00FD9005C0E0FAA3E0FB9005C4E0FFA3E0A2
:100EEB00900997CFF0A3EFF0900989E0FEA3E0FF04
:100EFB00123A3C900602EEF0A3EFF09005D5E0FC21
:100F0B00A3E0FD9005C0E0FAA3E0FB9005C4E0FF71
:100F1B00A3E0900997CFF0A3EFF090098BE0FEA32D
:100F2B00E0FF123A3C9005FFEEF0A3EFF0122A34EB
:100F3B009005D5E0FCA3E0FD9005C0E0FAA3E0FB33
:100F4B009005C4E0FFA3E0900A0FCFF0A3EFF09061
:100F5B0005BDE0FEA3E0FF1239FA900610EEF0A3F8
:100F6B00EFF09005D5E0FCA3E0FD9005C0E0FAA3FF
:100F7B00E0FB9005C4E0FFA3E0900A0FCFF0A3EFD6
:100F8B00F09005BBE0FEA3E0FF1239FA90060EEEDF
:100F9B00F0FCA3EFF0FD90098BE0FEA3E0FF9009BE
:100FAB008AE02FFF900989E03EC313FEEF13FF90F9
:100FBB00098DEEF0A3EFF0900611E02DFF900610D7
:100FCB00E03CC313FEEF13FF90098FEEF0A3EFF09D
:100FDB0090098DE0FCA3E0FDC39FEC9E5006AE0490
:100FEB00AF05800890098FE0FEA3E0FFD217121324
:100FFB0086402290098FE0FEA3E0FF90098DE0FC74
:10100B00A3E0FD9FEC9E5006AE04AF058000C21717
:10101B0012138650051218BD800A9005C71204F3EF
:10102B0000000000E4900987F0A3F0900987E0FE30
:10103B00A3E0FFC394DCEE648094805069EF25E05D
:10104B00FFEE33FE74032FF58274043EF583E0FE4E
:10105B00A3E0FF900610E0FCA3E0FD90060EE0FA83
:10106B00A3E0FB900997E4F0A37434F0A3E4F0A39E
:10107B007408F0122F29AC06AD07900988E025E023
:10108B00FF900987E033FE74122FF58274063EF54C
:10109B0083ECF0A3EDF0900988E004F0708D9009DB
:0610AB0087E004F08085DF
:0110B100221C
:10057D00200D030206F3C20D123DB27B047D087FF0
:10058D001A122E7E7B047D347F1A122E7E7B047D03
:10059D00087F7B122E7E7B047D347F7B122E7E7B2B
:1005AD00057D087F31122E7E7B057D347F31122E25
:1005BD007E7B057D087F4A122E7E7B057D347F4A2A
:1005CD00122E7E7B057D087F63122E7E7B057D348A
:1005DD007F63122E7E7B2D7D087F19122DCA7B2DF8
:1005ED007D087F7F122DCAE4900987F0900987E07E
:1005FD00FFC3940F748094805017EF75F007A424F7
:10060D001AFF7B037D1E122E7E900987E004F08079
:10061D00DBE4900987F0900987E0FFC394067480AE
:10062D009480503BEF75F008A42409FD7B037F33C4
:10063D00122DCA900987E075F008A42409FD7B03EB
:10064D007F4C122DCA900987E075F008A42409FD8E
:10065D007B037F65122DCA900987E004F080B77B7C
:10066D00197D3EE4FF122E7E7B037D3CE4FF122DAF
:10067D00CA7B037D3C7F18122DCA9005D4E0FF3351
:10068D0095E0FE9005D7E02FFFE43ECF24CECF348A
:10069D00FFFE7C007D181202CD7D771202DF7B04F8
:1006AD007D3A122DCA7D387F1A123E529005FF12E7
:1006BD00319E900988EBF0A3EAF0A3E9F01233D64E
:1006CD007BFF7A2779121233D690060212319E9053
:1006DD000988EBF0A3EAF0A3E9F01233D67BFF7A99
:1006ED002779141233D6C218123E6FE4FD7F5C12C7
:1006FD003E527BFF7A2779161233D6E4FD7F5C12CA
:10070D003E52120992900988EBF0A3EAF0A3E9F0AA
:10071D001233D67BFF7A27791D1233D6E4FDFF30D5
:10072D000B0B123E527BFF7A2779208009123E5225
:10073D007BFF7A2779251233D6E4FD7F21123E52B5
:10074D009005CBE0FF3395E0FEEF64024E700F2075
:10075D00030C7B08FD7F45122DCAD2178010D217CE
:10076D00123E6A7B08E4FD7F45122DCAC217123E68
:10077D006A9005CC12319E900988EBF0A3EAF0A3A4
:10078D00E9F07BFF7A27792A1233D6900988E0FBAE
:10079D00A3E0FAA3E0F91233D67BFF7A277914127E
:1007AD0033D6C217123E6A9005CBE0FF3395E0FEBB
:1007BD00EF64034E70182003157B08FD7F47122D43
:1007CD00CA7B08E4FD7F4E122DCAD2178019D217AD
:1007DD00123E6A7B08E4FD7F47122DCA7B08E4FDBB
:1007ED007F4E122DCAC217123E6A300A047B7B80DF
:1007FD00027B7CE4FD7F481224A6C217123E6A904C
:10080D0005CBE0FF3395E0FEEF64044E700F20033F
:10081D000C7B08FD7F56122DCAD2178010D21712ED
:10082D003E6A7B08E4FD7F56122DCAC217123E6A3E
:10083D00E4FD7F50123E529005D3E0FF3395E0FE6C
:10084D00EF4E70087BFF7A27792C802C9005D3E032
:10085D00FF3395E0FEEF64014E70087BFF7A277938
:10086D002E80159005D3E0FF3395E0FEEF64024E28
:10087D0070097BFF7A2779301233D6C217123E6A80
:10088D003008107D18E4FF123E527BFF7A27793233
:10089D001233D67D10E4FF30090B123E527BFF7AE6
:1008AD002779378009123E527BFF7A27793C123324
:1008BD00D67D387F61123E527BFF7A277941123304
:1008CD00D69005CBE0FF3395E0FEEF4E7008200388
:1008DD0005D217123E6A7D387F61123E529005CEC9
:1008ED00E0FF3395E0FEEF25E0FFEE33FE74E12FE0
:1008FD00F58274053EF583E0FEA3E0AA06F97BFFC1
:10090D001233D6C217123E6A7D08E4FF123E527BA7
:10091D00FF7A2779251233D69005CBE0FF3395E08A
:10092D00FEEF64014E7008200305D217123E6A9047
:10093D0005BD12319E900988EBF0A3EAF0A3E9F012
:10094D007D08E4FF123E52900988E0FBA3E0FAA374
:10095D00E0F91233D6C217123E6A9005BB12319ED2
:10096D00900988EBF0A3EAF0A3E9F07D2EE4FF12E5
:10097D003E52900988E0FBA3E0FAA3E0F91233D6CA
:05098D00D218023E6FCC
:102C0B00300603022C9CE4900987F0900987E0FCC6
:102C1B00C39464748094805078E0FE241AFFC0073C
:102C2B009005D4E0F9FB3395E0FA9005D7E02BFB48
:102C3B00E43AFAEE7E002BFFEE3AFEEF25E0FFEED4
:102C4B0033FE74AE2FF58274053EF583A3E0FDECE5
:102C5B00241BFBE9FF3395E0FE9005D7E02FFFE443
:102C6B003EFEEC7583002FFFE5833EFEEF25E0FF74
:102C7B00EE33FE74B02FF58274053EF583A3E0901E
:102C8B00098BF0D0071221A5900987E004F0022CE4
:102C9B0016300654E4900987F0900987E0D39464CA
:102CAB00748094805042E0FE241AFFC0079005D434
:102CBB00E0FD3395E0FC9005D7E02DFDE43CFCEE08
:102CCB007E002DFFEE3CFEEF25E0FFEE33FE74AEF3
:102CDB002FF58274053EF583A3E0FDD007122FD2AA
:082CEB00900987E004F080B1BC
:012CF30022BE
:10201400300D67C20D123DB290098A7424F0A37486
:10202400FFF0A37427F0A3748DF0A3E4F0A374A4C9
:10203400F07B637D187F12121ACB7D1E7F66123EE1
:10204400527BFF7A2779471233D67D277F1E123EB3
:10205400527BFF7A27794C1233D67D307F2C123E87
:1020640052E4FF1235647F011235647F0212356435
:102074007F031235647F04123564C218123E6FE484
:10208400FDFF123E527BFF7A27795C1233D6A206FB
:10209400E43325E0FFE433FE74DB2FF58274053E60
:1020A400F583E0FEA3E0AA06F97BFF1233D6E4FD34
:1020B4007F46123E527BFF7A2779631233D67BFF29
:1020C4007A2779681233D6E4FD7F5E123E5290057A
:1020D400C4E0FEA3E0FFE4FCFD90098B7403F0125E
:1020E4002B227D0C7F46123E527BFF7A27796C129D
:1020F40033D67BFF7A2779681233D67D0C7F5E1244
:102104003E529005C6E0FFE4FCFDFE90098B74038B
:10211400F0122B227D0CE4FF123E527BFF7A2779CA
:10212400711233D69005DF12319E1233D67BFF7ABB
:102134002779141233D69005BFE0FF3395E0FEEF04
:102144004E700C7B7DFD7F401224A67B208019906D
:1021540005BFE0FF3395E0FEEF64014E70157B2070
:10216400FD7F401224A67B7DE4FD7F741224A67BB0
:102174002080229005BFE0FF3395E0FEEF64024E1D
:10218400701A7B20FD7F401224A67B20E4FD7F741F
:102194001224A67B7D7D0C7F741224A6D218023EE5
:0121A4006FCB
:103CE7007D0C7F40123E52C218123E6F7BFF301789
:103CF700067A27797780047A2779821233D6D21801
:033D0700023E6F0A
:1037D2005665637400446F7473004175746F2020E2
:1037E200004E6F726D616C0053696E676C650035D7
:1037F20030306D73003230306D73003130306D73A4
:103802000035306D730032306D730031306D7300EE
:10381200356D7300326D7300316D73003530307564
:0E382200730032303075730031303075730032
:103ABF004105CE024405DB37D237D74605F937DC4F
:103ACF0037E337EA5805E137F137F737FD38033871
:0F3ADF0008380D38123816381A381E3824382A8D
:10001E00020260E86480F8E933E83360110460F0AE
:10002E00ED33EC337009E8FCE9FDEAFEEBFF220448
:10003E0060DED3EB9FEA9EE99DE8C2E78CF0C2F743
:10004E0095F0400CE8CCF8E9CDF9EACEFAEBCFFB0F
:10005E0012022B85D0F05804700320D5B3E804703B
:10006E00075002B2D502026A92D5EC0460F7E4CCD6
:10007E00C0E0C398F8603B94186008400DD0E0FBD8
:10008E00020242E4FBFAC9FC8028E830E406E4C927
:10009E00FBE4CAFCE830E305E4C9CACBFCE854072C
:1000AE006010F8C3E913F9EA13FAEB13FBEC13FC37
:1000BE00D8F130F52FC3E49CFCEF9BFFEE9AFEEDDA
:1000CE0099FDD0E0FBEF4E4D4C701222DB03020285
:1000DE0067EC2CFCEF33FFEE33FEED33FDED30E736
:1000EE00EB020242EF2BFFEE3AFEED39FDD0E0FBC4
:1000FE0050130BBB000302026AED13FDEE13FEEF6D
:08010E0013FFEC13FC02024296
:1001160002026AEC5D046005E8590470030202609D
:1001260012022B580460F6EC4860F2EC7004FDFEF7
:10013600FF22C860DB2481C85009C39860025006BC
:100146000202679850CAF582E9294B4A7005AB82CC
:1001560002025675F0007C1A7880C3EF9BEE9AED8A
:1001660099400DC3EF9BFFEE9AFEED99FDE842F034
:10017600DC23ACF0D0E0FFD0E0FED0E0FDAB822087
:10018600E7101BEB60BAEC2CFCEF33FFEE33FEED11
:1001960033FD020242E803F830E705C0F075F000CF
:1001A600EF2FFFEE33FEED33FD40B830E7C280AAF5
:1001B60075F020800E75F010800575F0087D007EC4
:1001C600007F003392D530D5031204B5EC334010CE
:1001D600EF33FFEE33FEED33FDEC33FCD5F0ED22CD
:0E01E600E5F0247EA2D513CC92E7CDCEFF2209
:1001F400EDD2E7CD33EC3392D524814006E4FFFE03
:10020400FDFC22FCE4CFCECDCC24E0501174FF8061
:10021400EDC3CC13CCCD13CDCE13CECF13CF0470FE
:07022400F030D5DE0204B545
:10022B00E9D2E7C933E833F892D5EDD2E7CD33EC19
:07023B0033FC5002B2D52292
:10024200EC30E7100FBF000C0EBE00080DBD00041D
:100252000BEB6014A2D5EB13FCED92E7FD2274FFC9
:10026200FCFDFEFF22E480F8A2D574FF13FC7D8022
:03027200E480EF36
:1032CD00023830E493A3F8E493A34003F68001F2AF
:1032DD0008DFF48029E493A3F85407240CC8C33302
:1032ED00C4540F4420C8834004F456800146F6DFD1
:1032FD00E4800B0102040810204080903AB7E47E70
:10330D00019360BCA3FF543F30E509541FFEE493C5
:10331D00A360010ECF54C025E060A840B8E493A38C
:10332D00FAE493A3F8E493A3C8C582C8CAC583CAB7
:10333D00F0A3C8C582C8CAC583CADFE9DEE780BE6F
:013AEE0000D7
:10027500BB010689828A83E0225002E722BBFE0287
:09028500E32289828A83E49322BA
:10028E00BB010CE58229F582E5833AF583E0225025
:10029E0006E92582F8E622BBFE06E92582F8E2226F
:0D02AE00E58229F582E5833AF583E4932289
:1002BB00BB010689828A83F0225002F722BBFE0122
:0202CB00F3221C
:1002CD00EF8DF0A4A8F0CF8CF0A428CE8DF0A42E45
:0202DD00FE22FF
:1002DF00BC000BBE0029EF8DF084FFADF022E4CC03
:1002EF00F875F008EF2FFFEE33FEEC33FCEE9DECCC
:1002FF00984005FCEE9DFE0FD5F0E9E4CEFD22ED12
:10030F00F8F5F0EE8420D21CFEADF075F008EF2F5B
:10031F00FFED33FD4007985006D5F0F222C398FD4C
:05032F000FD5F0EA22E9
:10033400C5F0F8A3E028F0C5F0F8E5821582700254
:060344001583E038F022F1
:10034A00A3F8E0C5F025F0F0E58215827002158366
:06035A00E0C838F0E822C3
:10036000BB0110E58229F582E5833AF583E0F5F0DB
:10037000A3E0225009E92582F886F008E622BBFEB8
:100380000AE92582F8E2F5F008E222E5832AF583FE
:08039000E993F5F0A3E99322C3
:10039800E88FF0A4CC8BF0A42CFCE98EF0A42CFC04
:1003A8008AF0EDA42CFCEA8EF0A4CDA8F08BF0A482
:1003B8002DCC3825F0FDE98FF0A42CCD35F0FCEBE1
:1003C8008EF0A4FEA9F0EB8FF0A4CFC5F02ECD39A6
:0F03D800FEE43CFCEAA42DCE35F0FDE43CFC2213
:1003E70075F008758200EF2FFFEE33FECD33CDCCCD
:1003F70033CCC58233C5829BED9AEC99E582984050
:100407000CF582EE9BFEED9AFDEC99FC0FD5F0D62C
:10041700E4CEFBE4CDFAE4CCF9A88222B800C1B956
:100427000059BA002DEC8BF084CFCECDFCE5F0CB94
:10043700F97818EF2FFFEE33FEED33FDEC33FCEBCD
:1004470033FB10D703994004EB99FB0FD8E5E4F988
:10045700FA227818EF2FFFEE33FEED33FDEC33FC75
:10046700C933C910D7059BE99A4007EC9BFCE99A69
:10047700F90FD8E0E4C9FAE4CCFB2275F010EF2FAE
:10048700FFEE33FEED33FDCC33CCC833C810D707AE
:100497009BEC9AE899400AED9BFDEC9AFCE899F8E9
:0E04A7000FD5F0DAE4CDFBE4CCFAE4C8F9227C
:1039B600C2D5E830E70FB2D5E4C39BFBE49AFAE43C
:1039C60099F9E498F8EC30E717B2D51239EC1204FD
:1039D60023E4C39BFBE49AFAE499F9E498F880039C
:1039E60012042330D50DE4C39FFFE49EFEE49DFD43
:0439F600E49CFC222F
:0E04B500C3E49FFFE49EFEE49DFDE49CFC2258
:1004C300EB9FF5F0EA9E42F0E99D42F0E89C45F08F
:0104D3002206
:1004D400E8600FECC313FCED13FDEE13FEEF13FF06
:0304E400D8F1222A
:0C04E700ECF0A3EDF0A3EEF0A3EFF02288
:1004F300A8828583F0D083D08212050A12050A12DE
:10050300050A12050AE473E493A3C583C5F0C58302
:10051300C8C582C8F0A3C583C5F0C583C8C582C852
:0105230022B5
:10052400EC8EF0A4CCC5F0CCCDF8EFA4CEC5F02D64
:10053400FDE43CFCE8A42EC8C5F03DFDE43CFCEF22
:0D054400A4FFE5F028FEE43DFDE43CFC22B0
:0C3DF900EE30E707C3E49FFFE49EFE22CB
:10055100EF4E6012EF60010EEDBB010B89828A83C1
:10056100F0A3DFFCDEFA2289F05007F709DFFCA9CE
:0C057100F022BBFEFCF309DFFCA9F02225
:00000001FF
