:10000000021CDBC20CE47AB3001A220211B8021DF2
:0A00100087222202196A021D8722CE
:10001B00021D566D337A37039274FE121C7C7403E7
:10002B00121C7C7E7300260A376D222F112E2400A2
:10003B00FF2E181E220B1A300A56121C7C7E7300E0
:10004B00260A376D222F112E2400FF2E181E220B8D
:10005B001A50121C2A7401121C7C74FF121C7C1285
:10006B001DA27E7300260A376D222E2400FF2E1848
:10007B001DAC7E1BB030E204D2CB8002C2CB30E190
:10008B0004D2858002C28530E003D28622C286224A
:10009B000214ACC28CD2A9D2B95389FC438E8022F4
:1000AB00021AF24393105394EF75BC8C75DE004328
:1000BB00BA80740A7E34FEA87E24007E7A1BB0229E
:1000CB0002135975E90075EA00A9D7BA7593007543
:1000DB00940075910075920075950075960075B139
:1000EB000075B20075B30075B40075C90075CA0010
:1000FB0075CB0075CC0075E10075E20053937F431F
:10010B009480D2B3D2B553B2FC43B10374807E3426
:10011B00FE077E24007E7A1BB07E34FE077E240011
:10012B007E7E1BB030E0F2120003121814D2AF7EA9
:10013B003401F4121CAE80030000007EB30010B437
:10014B0004F61200AE12192E12009E121C0CE47E45
:10015B00181B581213DB121BAC120BD9120E7CD2CC
:10016B00AAD28AE47AB300229F117E0801CB7406CF
:10017B001217CA7E7301CC0A277E6301CB0A162D98
:10018B00127EA301CD0A2A2D217EB301CE0A4B2D5F
:10019B00427E5301CF0A25BD2478067E24000180C0
:1001AB00026D226E24005568707A63038D7A730397
:1001BB00907AA300267AB3002730E704D20480029A
:1001CB00C2047EB3002754037AB300277E73038DDA
:1001DB00BE70FA280674807AB3038D7E730390BECB
:1001EB007014280674067AB303907E730390BE7066
:1001FB0002500674067AB303907E730026BE700815
:10020B00400674037AB300267E730027BE7003404A
:10021B0005E47AB30027E4801BC20474807AB3032D
:10022B008D74067AB3039074037AB30026E47AB321
:10023B00002774FA7AB300227E33038D7E34FED608
:10024B007E24007E7A1B30C2036D337A370023C2C3
:10025B000BD20712156C12001E121BCE121B891229
:10026B001BED02075B300605C206121B65300962E7
:10027B00C2097EB30022605A147AB3002278537EEF
:10028B0073038D7A7301CB7E7303907A7301CC7EEB
:10029B007300267A7301CD7E7300277A7301CE30FB
:1002AB00040A7EB301CE44807AB301CE7EB301CC77
:1002BB002EB301CB2EB301CD2EB301CE64557AB341
:1002CB0001CF9F11121C469F117E0801CB740612A1
:1002DB000DBC2007030203CF200B5CC2006D337AE9
:1002EB003703947A37038E7EA30390BEA002380A9D
:1002FB0074017AB3039974038023BEA00378087446
:10030B00027AB303998016BEA004780A74047AB3F8
:10031B00039974018007740A7AB30399E47AB303DF
:10032B00987AA301ECD20B120CD530040575E69626
:10033B00805175E6A6804C7E730390BE700A3822FE
:10034B00300040C200C20B800500000000003002EC
:10035B00F8C202120AD92008277EB30027B4022361
:10036B00801E30001EC20012150C7E37038EBE3469
:10037B000FA0400FC20B2008077EB30027B4020367
:10038B0012177A300140C2016D337A37039274FE33
:10039B00121C7C7407121C7C7E1F01EE7CB4121C99
:1003AB002A7E1F01EE7CB5121C2A7E1F01EE7CB645
:1003BB00121C2A7E2F01EE121C2A74FF121C7C12B7
:1003CB001DA28002C20B300C277EB3001AB4041D91
:1003DB00900FA8E0B4FE16900FA9E0B4010F900F98
:1003EB00ABE0B4FF08900FAAE07AB30028121C967A
:1003FB007ED300284CDD7803020270BED005784313
:10040B002007247E730026BE7008400674077AB35B
:10041B00002612001ED207C208121BCEC2036D3378
:10042B007A37002302075B7EB30027600280097EC8
:10043B00730390BE700B400612177A02075BD2084B
:10044B0002075BBED0067807B204121B89801BBE65
:10045B00D007781B7EB30027047AB30027BEB00306
:10046B004005E47AB30027121BEDC20B020637BE20
:10047B00D00168030205157EC30390BEC014400370
:10048B0002075B30070F7CBC047AB30390C20B12DC
:10049B00156C0206377EA303984CAA780302075B00
:1004AB007CBC047AB303907CBA147AB303987E7342
:1004BB0003990A377E270023AD327A3700237E73E8
:1004CB0001EC0A376D227E0800031209A22F002FC0
:1004DB00007EB303980A3B6D222F102E2400FF2EB3
:1004EB00181E167E1BA07AA303990A2A7E370023B7
:1004FB008D327A37002370066D337A37002312154D
:10050B006C12167F120AD9020637BED0026803029C
:10051B0005A97EC30390BEC002380302075B3007F8
:10052B000F7CBC147AB30390C20B12156C02063706
:10053B007EA30398BEA003400302075B7CBC147A26
:10054B00B303907CBA047AB303987E7303990A378A
:10055B007E270023AD327A3700237E7301EC0A37F6
:10056B006D227E0800031209A22F002F007E730359
:10057B00980A376D222F102E2400FF2E181E167E80
:10058B001B707A7303990A277E3700238D327A37D3
:10059B00002312156C12167F120AD9020637BED031
:1005AB0003781920070302075B7EB3002670030252
:1005BB00075B147AB3002612001E8070BED004783D
:1005CB001C20070302075B7EB30026BEB007400367
:1005DB0002075B047AB3002612001E804FBED00ABE
:1005EB00782220070302075B7EB3038D6005147A24
:1005FB00B3038D7E33038D7E34FED67E24007E7A4C
:10060B001B308028BED00B782C20070302075B7EA3
:10061B00B3038DBEB0FA5005047AB3038D7E33035A
:10062B008D7E34FED67E24007E7A1B3074FA7AB32C
:10063B00002202075BBED008787230070302075B0B
:10064B002005087E3700230B3480087E3700232ECD
:10065B0034000A7A3700237E7301EC0A376D227E51
:10066B000800031209A22F002F007E7303980A378C
:10067B006D222F102E2400FF2E181E167E1BB07A13
:10068B00B30399B403067E7404B080107E73039990
:10069B000A677E740FA08D769E740190BE7700233F
:1006AB00280302073D7A77002302073D7EB300281B
:1006BB00B40902800302074530070302075B2005DC
:1006CB000C7E3700234D33681A1B3480127E3700A3
:1006DB0023BE34000A40069E34000A80026D337A32
:1006EB003700237E7301EC0A376D227E080003125C
:1006FB0009A22F002F007E7303980A376D222F104B
:10070B002E2400FF2E181E167E1BB07AB30399B44D
:10071B0003067E7404B080107E7303990A677E749F
:10072B000FA08D769E740190BE77002338047A77E4
:10073B00002312167F120AD980167EB30028B40C40
:10074B000F12156C12001E121BCE121B89121BED01
:10075B00E47AB300280202705D22680D5D00781206
:10076B002D220B4068099F11222D000B0078F902F6
:10077B00093B1208FE5C800B806808248150072C13
:10078B00B0500A0209432CB040030209407C8B5D38
:10079B001178267CB17CA5BE1080680A5D33780D7C
:1007AB00A5BD80057F1002092D6D0080307F017C77
:1007BB005B7CB17CA5AD1280245D337806A5BD8032
:1007CB00F080E1CA887D41AD437CB17CA5AD122D93
:1007DB001450020B047C5BAD232F01DA88A42D058A
:1007EB00BE008040060B80780480982F007C437CF1
:1007FB00507C617C72020917BE24FFFF6806BE04A1
:10080B00FFFF780302093B1208FE5CB00468F57C1D
:10081B00B8A54868EF7CB870039F1122A5B80003F8
:10082B000209432E008150079C8038070209409C27
:10083B008050ED0A51C2E74D51780302092D7E54C9
:10084B0000807E901A6C0080061B9068142F11BFDD
:10085B001040049F104CAB0330E7EECAA86CAA8083
:10086B00E8DA39DA587C4ABE5080500A1B8068BCE3
:10087B002F1150020B700209177EA020800C7EA056
:10088B001080057EA0086C556D333392D5500A6EDF
:10089B0034FFFF6E24FFFF0B1CA5EC3340062F111A
:1008AB00D5F0F6227CBA247EA2D5137C767C65A586
:1008BB00CC92E77C5B227CB5337CB43392D54E5023
:1008CB0080248140039F11227C457C567C676C778A
:1008DB0024E0500E7E1CFFFF221E341E2450034EBC
:1008EB0060800478F430D50A6E34FFFF6E24FFFF6E
:1008FB000B1C222D0092D50E104E10807D422D44E4
:10090B005002B2D54E50806C447CB8222C4450120D
:10091B000B1C7E40005E507FBE18000078040B80DD
:10092B006816A2D57CB8137C4B7CB592E77C5B2216
:10093B007E1CFFFF229F11227E24FF8020D5026C9C
:10094B00456D33226D0074104D00780B4D227827C6
:10095B008D317D126D22227D437D326D222F112D23
:10096B00445002A50FBF1040049F100B901478ED5C
:10097B007F016D227D34227D417D138D247D022FDD
:10098B00004004BD0440049D040B141478F17D2336
:10099B007D317D106D0022C2D57CB030E708B2D519
:1009AB009F229F207F027CB430E713B2D59F229FFA
:1009BB00217F121209519F229F207F02800312096F
:1009CB005130D5069F229F217F1222CAF87EF30059
:1009DB00087CBF5480B480167EB3000B70307EB39E
:1009EB00000A702A7E37000EBE3400026803020A2A
:1009FB00CE7CBF540F14681B14683B0BB168030209
:100A0B000ACE7EB3000D70067EB3000C601E020A88
:100A1B00CE80197EB30010B4040F7EB3000D6003BB
:100A2B00020ACE7EB3000C6003020ACE7E34134D55
:100A3B007E2400FF807D7EB30010B404067EB300DD
:100A4B000D6002807E7E73000C7CA75EA00F1B7076
:100A5B0068362E707F68040B7078687E2400017CEA
:100A6B00BA60053E241478FB7E7300186C665C75C7
:100A7B004D33680A7E34134F7E2400FF80357E345D
:100A8B00134D7E2400FF802B7E2400017CBA600571
:100A9B003E241478FB7E7300196C665C754D3368CD
:100AAB000A7E34134F7E2400FF80087E34134D7E64
:100ABB002400FF7A1F00147E3400027A3700128064
:100ACB00078000121D878003121D68DAF822CA3BCB
:100ADB007EA30399BEA003787C7E3404B07E2700EE
:100AEB0023BE2404B040047A3700237E2700237EE4
:100AFB00340005AD327D631E646D777D362E340078
:100B0B00007A71827A6183E07AB3039EBEB0FA28D1
:100B1B000674FA7AB3039E7EB3039E19B701F30BE7
:100B2B00650B747D362E3400007A71827A6183E016
:100B3B007AB3039EBEB0FA280674FA7AB3039E7E8C
:100B4B00B3039E19B701F32E6400030B74BE74013B
:100B5B009040A880520A3A7E140FA08D137D619E9F
:100B6B00640190BE67002338047A6700237E070078
:100B7B00237D10AD137D616D777D262E2400007AC9
:100B8B0051827A4183E07AB3039EBEB0FA28067491
:100B9B00FA7AB3039E7E53039E195701F32D630B11
:100BAB0074BE74019078D26D337A37039274FB1252
:100BBB001C7C6D7709B701F3121C7C0B74BE74019E
:100BCB009040F174FF121C7C121DA2DA3B22CAF872
:100BDB0043BA80E47E34FEB17E24007E7A1BB07E65
:100BEB0014FEC47E04007E7A0BB06CFF7E54FEC5EF
:100BFB007E44007E7A2BF07E54FEC67A2BF07E5418
:100C0B00FED07A2BF07E54FED17A2BF07EF0187E3C
:100C1B0054FEDE7A2BF07EF0017E54FED27A2BF05E
:100C2B006CFF7E54FED37A2BF07EF0687E54FEC8A8
:100C3B007A2BF06CFF7E54FED57A2BF07EF0807E03
:100C4B0054FED67A2BF07EF0687E54FEC97A2BF0D8
:100C5B006CFF7E54FED77A2BF07EF0807E54FED84C
:100C6B007A2BF07EF0687E54FECA7A2BF06CFF7EF6
:100C7B0054FED97A2BF07EF0807E54FEDA7A2BF07C
:100C8B007EF0557E54FECC7A2BF07EF0057E54FE22
:100C9B00CD7A2BF06CFF7E54FEB27A2BF0E47A0BFC
:100CAB00B074807E14FEDD7A0BB074817E14FEC0AE
:100CBB007A0BB074017E14FEC77A0BB074197A1BD1
:100CCB00B05391E6439219DAF8227EA30390BEA0AB
:100CDB0005380575DE008017BEA006780575DE01A8
:100CEB00800DBEA007780575DE03800375DE09BE97
:100CFB00A0083804740C8026BEA0097804741980EF
:100D0B001DBEA00A780474328014BEA00B78047444
:100D1B0064800BBEA00C780474C8800274FA7AB39A
:100D2B00002A7EB3002770087EB3002A7AB301EB4A
:100D3B00BEA00A38170A3A6D222F112E2400FF2E5F
:100D4B00181E5C0B1AF0C28CC20A8026BEA00D388E
:100D5B003C0A3A6D222F112E2400FF2E181E5C0B1D
:100D6B001AF0C28C7EE400017AE703967AE7002B37
:100D7B00D20A7E140023AD1F6D006D337E2400015B
:100D8B009F107CB6F58C6D227CB7F58A220A3A6DE2
:100D9B00222F112E2400FF2E181E5C0B1AF0C28C72
:100DAB007AF703967AF7002BD20A758C77758A48F7
:100DBB0022CA3B7AB303A27A0F039E7F317EA30331
:100DCB00A24CAA78057401020E7975C78075F523BC
:100DDB007AA303A37A7703A47E1F039E7A1F03A62D
:100DEB0075C5027CBDF5F67CBEF5C37CBFF5C47E34
:100DFB001F039E7E1BB0F5C2121CF10B3C7E1F0322
:100E0B009E0B347A1F039E7EB303A2147AB303A204
:100E1B0078D17E7703A46D667E7303A37A7303A2E6
:100E2B007E1F03A67A1F039EE47AB303A375C50145
:100E3B007CBDF5F67CBEF5C37CBFF5C4121CF17E00
:100E4B001F039E7E1BA0E5C2BCAB680874027AB37D
:100E5B0003A380130B3C0B347A1F039E7EB303A2B8
:100E6B00147AB303A278C9121D307EB303A3DA3B05
:100E7B0022CAF843BA80E47E34FEB57E24007E7A23
:100E8B001BB07E14FEE47E04007E7A0BB06CFF7EFA
:100E9B0054FEE57E44007E7A2BF07E54FEE67A2BE0
:100EAB00F07EF0887E54FEF07A2BF07EF0B77E5405
:100EBB00FEF17A2BF07EF0037E54FEF27A2BF07E5D
:100ECB00F0F27E54FEF37A2BF07EF0687E54FEEA4D
:100EDB007A2BF07EF0037E54FEF97A2BF07EF0E84D
:100EEB007E54FEFA7A2BF06CFF7E54FEEC7A2BF0DC
:100EFB007EF0057E54FEED7A2BF07EF0107E54FED4
:100F0B00B67A2BF0E47A0BB074807E14FEFD7A0B6C
:100F1B00B074817E14FEE07A0BB074017E14FEE790
:100F2B007A0BB074107A1BB053B1F743B208DAF8EE
:100F3B00227EB30010BEB00268207EB30008701A88
:100F4B007EB3000B70147EB3000D700E7EB3000CDD
:100F5B0070087E37000E4D336803021D877EB30089
:100F6B000AB4015F74047AB30010E47AB300187A00
:100F7B00B30019740E7E7001121D4374127E702023
:100F8B00121D4374107E7008121D43740E7E700286
:100F9B00121D4374127E7020121D4374107E700854
:100FAB00121D43740E7E7001121D4374126C771266
:100FBB001D4374137E7008121D43740E6C77121D43
:100FCB0043801074037AB3001074FF7AB300187A5D
:100FDB00B30019021D957EB30010B404247EB30038
:100FEB0008B4021D7EB3000D600302107A7EB300BD
:100FFB000B707C7EB3000A70767E37000E4D336823
:10100B0002806C7E63000C7C765E700F1B60682F19
:10101B002E607F68040B6078567E2400017CB760DD
:10102B00053E241478FB7C656E60FF5E6300187AC6
:10103B00630018740E121D4374117E704080247E61
:10104B002400017CB760053E241478FB7C656E6040
:10105B00FF5E6300197A630019740E121D4374143A
:10106B007E7080121D43740E6C77121D4380030239
:10107B001D87021D957EB300085480BEB0806803A7
:10108B0002110B7EB3000B1BB168191468280BB14E
:10109B00786E7E3412F87E2400FF7A1F00147E34A3
:1010AB00001280547E34130A7E2400FF7A1F001432
:1010BB007E34004380427EB3000A146819146828FA
:1010CB000BB1783C7E3412F47E2400FF7A1F00149F
:1010DB007E34000480227E3413517E2400FF7A1F5D
:1010EB0000147E34000880107E3412D67E2400FF5C
:1010FB007A1F00147E34001E7A37001280058000A0
:10110B00021D877E37000EBE37001250047A37005F
:10111B0012021D687EB30010B404247EB30008B421
:10112B00021D7EB3000D60030211B27EB3000B7083
:10113B00767EB3000A70707E37000E4D33680280E6
:10114B00667E63000C7C765E700F1B60682C2E60D5
:10115B007F68040B6078507E2400017CB760053EED
:10116B00241478FB7C654E6300187A630018740EA8
:10117B00121D4374117E701080217E2400017CB7F8
:10118B0060053E241478FB7C654E6300197A63007E
:10119B0019740E121D4374147E7020121D43740EAD
:1011AB006C77121D438003021D87021D95CAB8CAB6
:1011BB001BCA0BC0D1C083C082E5BD64FF7AB300EC
:1011CB002975BD0075BCCC200A237EB300297E3760
:1011DB0003947D232E2400007A51827A4183F00BF5
:1011EB00347A370394BE340FA0404980437E3700D6
:1011FB002B1B347A37002B783B7E3703967A3700DC
:10120B002B7EB300297E3703947D232E2400007A96
:10121B0051827A4183F07E04000A7D138D104D00BC
:10122B007802D2000B347A370394BE340FA04004FB
:10123B00D200C28CD082D083D0D1DA0BDA1BDAB8D1
:10124B0032CAF8740E6C77121D437411121D1B7C7D
:10125B00FB30E20F74117C7F5E70DF121D43E47A6A
:10126B00B300117CBF30E40A74117C7F5E707F1277
:10127B001D437EB3001124FD68461468480BB278F9
:10128B00477CBF30E04274207E0800081219A67E0E
:10129B0037000E121A167A37000E7EB30008546010
:1012AB0024E0680D24E0680E2440780F1215CC80E2
:1012BB0017121C618012121DA9800D121D87800848
:1012CB001214458003121729DAF8221E0353005417
:1012DB0000430020005500530042002000530065DE
:1012EB00007200690061006C000403090412010024
:1012FB000202000040BF3402FF000101020001099D
:10130B0002430002010080320904000001020201C5
:10131B00000524001001052401000104240202052C
:10132B0024060001070582034000FF0904010002A7
:10133B000A0000000705810240000007050102407A
:10134B000000000001000803530054004300CA7B57
:10135B00CA6BCA5BCA4BCAD8CA79CA2BCA1BCA0B7F
:10136B00C0D1C0D0C083C0827406121D1B7CFB741D
:10137B0002121D1B7CDB7404121D1B7CEB7CBF302B
:10138B00E1031200127CBF30E2031218A87CBD30BF
:10139B00E00312124C7CBD30E103121A4B7CBD30C2
:1013AB00E203121A767CBE30E1031219DF7CBF30E8
:1013BB00E003120011D082D083D0D0D0D1DA0BDA77
:1013CB001BDA2BDA79DAD8DA4BDA5BDA6BDA7B32C7
:1013DB007F717C7B43BA8053DDF04C7B68217F1798
:1013EB00E41208847E1483B07E044C051207637EDE
:1013FB001424007E0449741208031208C17F716D16
:10140B00337E24000CBF7140037401226DDD7EC45A
:10141B000001BF76500543DD02800B7E14000C7F6C
:10142B001712094F7F717F169F177CB6F5D47CB7C7
:10143B00F5D543AF2043DD08E422CAF8740E6C7770
:10144B00121D437411121D1B20E1537E370012BE77
:10145B0034004028057EF04080027CF77E0F00149C
:10146B007C7F7420121AA10A2F7E3700129D327ACC
:10147B003700120A157E1F00142D317A1F00147EBF
:10148B003700124D33780F74117E700A121D43E42E
:10149B007AB30011800874117E7002121D43DAF8C2
:1014AB0022CA59CA1BC0D17EB300250A3B6D222E1E
:1014BB002400FF2E181DE47E1BA07E34FED87E2454
:1014CB00007E7A1BA0047AB30025B43205E47AB30C
:1014DB0000257EB30030047AB30030B42807E47AD9
:1014EB00B30030D2067EB30391047AB30391B4A058
:1014FB0009E47AB30391D209D202D0D1DA1BDA59BB
:10150B0032CA69CAF87E37038E7E04000A7D138DBA
:10151B00107D61BE64019050432E3400007A7182BD
:10152B007A61837EEBF0BEF0FA28037EF0FA6D331E
:10153B007A37039274FC121C7C0A5C121C2A7CBD49
:10154B00121C2A7CBF121C7C74FF121C7C121DA265
:10155B007E37038E2E34000A7A37038EDAF8DA6977
:10156B00226D337A37039274FE121C7C7402121CA8
:10157B007C7E7303900A376D222F112E2400FF2ED1
:10158B00181E860B1A300A56121C7C7E7303900AA7
:10159B00376D222F112E2400FF2E181E860B1A508A
:1015AB00121C2A7E7303900A376D222E2400FF2E05
:1015BB00181E477E1BB0121C7C74FF121C7C021D74
:1015CB00A27EB30009BEB00D50507EA003A49015AF
:1015DB00DD7302160402160702162502160A0216FE
:1015EB002502160D021610021613021616021619F4
:1015FB0002161C02161F0216220209D6020FE10266
:10160B00111F02185E02108002000E0216D5020F87
:10161B003C0218F0021ACA020016021D87CA3B7D53
:10162B0073A9C7AF740E7E7001121D436D66BE7435
:10163B00004008057E704080027C7F7A73039F74A4
:10164B0011121D1B20E0F87D162E140FE87E0400EE
:10165B00017EB3039F7E7001121D067E73039F0AEA
:10166B00372D639D737E73039FBE704050C0A9D707
:10167B00AFDA3B22CA3B6D337A3703927E7303900A
:10168B006D222F112E2400FF2E181DBA0B1A607E0F
:10169B00770023AD7674FE121C7C7408121C7C0A36
:1016AB005E121C2A7CBF121C2A7E7303900A376DB4
:1016BB00222E2400FF2E181E327E1BB0121C7C74AF
:1016CB00FF121C7C121DA2DA3B227EB30008B480F1
:1016DB00227EB3000B701C7EB3000A70167EB30023
:1016EB000D70107EB3000C700A7E37000EBE3400F6
:1016FB00016803021D877EB30010B4040A7E341305
:10170B004F7E2400FF80087E34134D7E2400FF7A29
:10171B001F00147E3400017A370012021D68740E0C
:10172B006C77121D437411121D1B30E04174207E27
:10173B000F00141219A60A1B7E2700129D217A276F
:10174B0000127E1F00142D317A1F00147E370012F9
:10175B004D33780F74117E7048121D43E47AB30039
:10176B0011800874117E7040121D430200192275FE
:10177B00E686C28CC20BC207C208E47AB301EB1235
:10178B001BCE6D337A37002312167F7EA301ECBE7E
:10179B00A004780A74057AB301EC7401801CBEA016
:1017AB0003780A74057AB301EC7402800DBEA002B3
:1017BB00780C74057AB301EC74037AB3039822CADC
:1017CB003B7AB303A27A0F039E7F3175C78075F501
:1017DB002375C5017CBDF5F67CBEF5C37CBFF5C496
:1017EB00121CF1E5C27E1F039E7A1BB00B3C7E1FC1
:1017FB00039E0B347A1F039E7EB303A2147AB303AA
:10180B00A278D1121D30DA3B2275DC0075F490E41E
:10181B006C77121D4374017E7008121D4374077E92
:10182B00703F121D4374097E703F121D43740B7E73
:10183B007007121D4374016C77121D4374027AB347
:10184B000010E47AB300117AB300187AB30019A927
:10185B00D7AF22CAF87EB3000870237EB3000D7099
:10186B001D7EB3000C70177EB3000B70117EF3005E
:10187B000ABEF08050087E37000E4D336805121DEE
:10188B00878017E47C7F121D434CFF680474038030
:10189B000274027AB30010121D95DAF822E46C7709
:1018AB00121D4374027AB30010E47AB30011740E64
:1018BB007E7001121D4374117E7048121D43740E0D
:1018CB007E7002121D4374117E7048121D43740EFC
:1018DB007E7001121D4374147E7090121D43740EA2
:1018EB006C77021D437EB30010B4041D7EB3000859
:1018FB00B481167EB3000B70107EB3000D700A7EA0
:10190B0037000EBE3400016803021D877E34134D71
:10191B007E2400FF7A1F00147E3400017A370012F8
:10192B00021D6875E60075E70A43E680E5E6F5E615
:10193B00E5E6F5E6E5E6F5E643E60443E602E5E72C
:10194B00F5E7E5E7F5E753BAF753B1EF43B21043C9
:10195B00B1C053B23F43B52043B62075E68622CAC9
:10196B00B8CA1BCA0BC0D1E58D6D227C6B6C777E20
:10197B003301ED0A137D016D112F01E58B0A3B2F0E
:10198B00107A1F01EEE47AB301ED758D00758B00B3
:10199B00D201D0D1DA0BDA1BDAB832CA3B7F307AFC
:1019AB00B3039A7416121D1B7AB3039B7AB3039C71
:1019BB00800C7EB3039A121D1B7A3BB00B747EA373
:1019CB00039B7CBA147AB3039B4CAA78E57EB303D2
:1019DB009CDA3B22CAF8740E7E7001121D437414FC
:1019EB00121D1B7CFB30E60874147E7080121D43A5
:1019FB007CBF30E01374217E140FA87E040001120B
:101A0B0019A67AB3001AD20CDAF8227A37039A7E27
:101A1B0034039B7E2400007E1B307E34039C7E248B
:101A2B0000007A1B307E34039A7E2400007E1B302C
:101A3B007E34039D7E2400007A1B307E37039C226C
:101A4B00CAF8740E7E7001121D437411121D1B7C9B
:101A5B00FB30E50874117E7040121D437CBF30E2F1
:101A6B000774116C77121D43DAF822CAF8740E7ED4
:101A7B007002121D437411121D1B7CFB30E50874A0
:101A8B00117E7040121D437CBF30E20774116C77DE
:101A9B00121D43DAF822CA3BCA787F30CAB8800BD2
:101AAB007EFBB07E3B700B74121D4329AFFFFF7C96
:101ABB00BA1439BFFFFF4CAA78E61BFDDA3B227E36
:101ACB00B30010B4041B7EB30008B401147EB30042
:101ADB000B700E7EB3000D70087E37000E4D336811
:101AEB0003021D87021D95CAB8CA39C0D175BD0046
:101AFB0075BCCCD28CE47AB301EB6D337A3703949B
:101B0B007A37038E75E686D0D1DA39DAB8327EB3FE
:101B1B000010B404097EB30008BEB0A16803021D17
:101B2B00877E1803AA7A1F00147E37000E7A3700BF
:101B3B0012021D687EB30010B404097EB30008BE08
:101B4B00B0216803021D877E1803AA7A1F00147E3A
:101B5B0037000E7A370012021D797EB301EB601D40
:101B6B00147AB301EB7816F5BDF5BE75BCCCD28CEF
:101B7B0075E6866D337A3703947A37038E226D338D
:101B8B007A37039274FE121C7C7405121C7C300491
:101B9B0003E480027401121C7C74FF121C7C021D76
:101BAB00A243BA8053DD0F43DD2075D2BB75D3A49E
:101BBB00E47E34FEAC7E24007E7A1BB043DD104302
:101BCB00DD80226D337A37039274FE121C7C740411
:101BDB00121C7CA207E433121C7C74FF121C7C02C7
:101BEB001DA26D337A37039274FE121C7C7406129D
:101BFB001C7C7EB30027121C7C74FF121C7C021D04
:101C0B00A2C28E438E40E58954CF4410F589438997
:101C1B0040758D00758B00438980D2ABD28E22CA62
:101C2B00F87CFBBEF0FB400B74FD121C7C7CBF549C
:101C3B007F80027CBF121C7CDAF82275C78075F599
:101C4B002375C5037CB5F5F67CB6F5C37CB7F5C437
:101C5B00121CF1021D307EB3000924DF680A1468E0
:101C6B000A0BB17809021B3F021B19021CC5021D8E
:101C7B00877E3703927D230B247A2703922E340F12
:101C8B00E87A71827A61837AEBB022A9C7AFC20C72
:101C9B00740E7E7001121D4374146C77121D43A9D0
:101CAB00D7AF227D237E3416C97D131B147D31786B
:101CBB00F87D121B147D2178EC227EB30010B40446
:101CCB00097EB30008BEB0216803021D87021D9573
:101CDB007584017E44041FE47A49B01B4478F97E75
:101CEB00F803B00200CEA2AF92D5C2AF75C65A753B
:101CFB00C6A500000000A2D592AF227CA77C7B0A70
:101D0B005A2E540020121AA174117E7001021D4329
:101D1B007CABE5FC20E7FB7CBA4480F5FCE5FC20C2
:101D2B00E7FBE5EC2275C70075C50075C60075F6B7
:101D3B00FF75C3FF75C4FF227CA77C7BE5FC20E706
:101D4B00FB7CB7547FF5FC7AA1EC22CAB8C0D17EDC
:101D5B00B301ED047AB301EDD0D1DAB83274037A62
:101D6B00B3001174117E7040121D430214457404AC
:101D7B007AB3001174117E7040021D4374057AB35F
:101D8B00001174117E7060021D43E47AB30011746C
:101D9B00117E7048021D437E370392021628021DE6
:101DAB008703000102040607050505050000000076
:101DBB0004000800020004000800020004000800F0
:101DCB0002000400080002000400080002000400E6
:101DDB000800020004000800028090A0AFBDCBD722
:101DEB00E2EBF3F9FDFFFFFDF9F3EBE2D7CBBDAF70
:101DFB00A090807060514335291E150D070301011A
:101E0B0003070D151E2935435160700A0502010A9F
:101E1B000503010A0402012710138809C403E80112
:101E2B00F400FA0064003202020303030404040505
:101E3B000505060606070707080808090101010141
:101E4B000101020202020202020202030303030364
:101E5B000300020002000200020002000200040064
:101E6B000800140028005000C80190032000020055
:101E7B0004000800140028005000C8000A001400D9
:101E8B0032006400C801F4000100020005000A00E2
:101E9B00140032006400C801F400010002000500C8
:051EAB000A00140032E2
:00000001FF
